:107800000C942A3C0C94453C0C94453C0C94453C0F
:107810000C94453C0C94453C0C94453C0C94453CE4
:107820000C94453C0C94453C0C94453C0C94453CD4
:107830000C94453C0C94453C0C94453C0C94453CC4
:107840000C94453C0C94453C0C94453C0C94EC3D0C
:107850000C94453C11241FBECFE5D8E0DEBFCDBF60
:1078600010E0A0E6B0E0E4E3FFE702C005900D926F
:10787000A636B107D9F710E0A6E6B0E001C01D9228
:10788000A337B107E1F70C94FA3C0C94003CAF929B
:10789000BF92CF92DF92EF92FF920F931F93CF93FD
:1078A000DF93CDB7DEB722970FB6F894DEBF0FBED9
:1078B000CDBFFE013196A1E0B0E082E0182E0E941B
:1078C000883F89819A818150984708F082C081E47D
:1078D0000E941C3DEE24FF2443E0F7014093570033
:1078E000E89587B799279C012170307080FDF9CF0A
:1078F00080E890E0E80EF91E90E0E91698E7F906B6
:1079000060F3790160EA80E00E944F3D60E081E031
:107910000E944F3D60E082E00E944F3D0E94743D16
:10792000789483E00E94783D0E94393D8823E1F7F6
:1079300089819A81E816F90608F03CC05701CC24E9
:10794000789461EA80E00E944F3D81E40E94783D96
:107950000E94393D8823E1F7F89431E0D32E8D2D34
:107960000E94C03D082F11278D2D8F5F0E94C03DC2
:107970009927982F8827082B192B81E00801F701F8
:1079800080935700E895112482E090E0E80EF91EFC
:1079900092E0D90E2FE32D1510F7C39481E08C15DA
:1079A00078F685E0F50180935700E89507B600FC6E
:1079B000FDCFBECFF8940E94773EA0E0B0E08FEFFD
:1079C000082E0E948D3FE199FECF81E18093570000
:1079D000E89522960FB6F894DEBF0FBECDBFDF91BB
:1079E000CF911F910F91FF90EF90DF90CF90BF90BC
:1079F000AF900895CFE5D8E0DEBFCDBFF894C1E0E9
:107A0000CBBF82E08BBFA0E0B0E00E94803F802D22
:107A1000882311F40E94473CCBBF1BBE0E9400008C
:107A200080E090E00C94993F262F3327322F2227B5
:107A30009927822B932B089580936C0099270E949D
:107A40007E3E90936E0080936D00109269001092BC
:107A50006A00109267001092680010926B0088EF25
:107A6000809366008CE080B98FEF83B984E086BF95
:107A7000089586B7992781709070089580916B0062
:107A80009927089586B79927817090708823D1F738
:107A90008091660099270895809369000895E09188
:107AA0006D00F0916E00E80FF11D60830895362F90
:107AB00020E02617C0F4DC0180916900E0916D00A0
:107AC000F0916E00E80FF11D8D9180838091690027
:107AD00090916C008F5F692F0E94743F90936900B2
:107AE0002F5F231748F3089581E08093680008957D
:107AF000282F86B79927817090708823D1F7222389
:107B000011F020936A0080936B0088EF80936600E9
:107B100085EA86BF0895CF93DF93EC0186B7992756
:107B2000817090708823D1F760936A00E0916D00B6
:107B3000F0916E0088818083E0916D00F0916E007D
:107B4000808180FD13C091E080916A00981770F4E5
:107B5000E92FFF27A0916D00B0916E00AE0FBF1FFF
:107B6000EC0FFD1F80818C939F5FEECF10926B0016
:107B700088EF8093660085EA86BFDF91CF910895F4
:107B8000E0916D00F0916E00E80FF11D8081992762
:107B90000895FC0186B7282F3327217030702223E7
:107BA000C9F780916B00882399F0422F261780F443
:107BB000DF0120E030E0E0916D00F0916E00E20F17
:107BC000F31F80818D934F5F2F5F3F4F461798F3D0
:107BD00080916B00992708951F920F920FB60F9214
:107BE00011242F933F938F939F93EF93FF9381B132
:107BF00099278832910511F18932910564F4803119
:107C00009105D1F0813191051CF40897A9F05FC06E
:107C10004897A1F05CC080349105C9F18134910589
:107C200024F4C89709F451C052C08035910511F170
:107C300088359105D9F14BC010926700909167008B
:107C400080916A00981760F4E0916D00F0916E00E9
:107C5000E90FF11D9F5F90936700808183B924C075
:107C600081E080936B0080916800882361F110921D
:107C7000680032C080916700E0916D00F0916E0065
:107C8000E80FF11D93B190838F5F8093670080911F
:107C90006700282F332780916A00992701972817BA
:107CA000390714F485EC17C085E815C0809167008A
:107CB000E0916D00F0916E00E80FF11D83B18083BB
:107CC00081E080936B0084E906C085EA04C081B13D
:107CD0008093660084E086BFFF91EF919F918F9122
:107CE0003F912F910F900FBE0F901F90189580918C
:107CF0006D0090916E000E94183F0895CF93DF931E
:107D0000AC01029710F442E050E020E030E0A09196
:107D10007100B0917200BD01F901109709F44CC0D7
:107D20008D919C9111978417950731F14817590748
:107D300038F42115310519F08217930708F49C01D6
:107D4000FD01A281B381109759F721153105A1F1E9
:107D5000C901841B950B049708F4A901DB01E0E03D
:107D6000F0E0109749F18D919C911197821793073C
:107D7000F9F44217530779F4ED018A819B8130971A
:107D800019F09383828304C09093720080937100F2
:107D9000CD0102964AC0241B350BFD01E20FF31FF3
:107DA00041935193225030402D933C93CF013DC0DD
:107DB000FD01A281B381D5CF80916F0090917000B9
:107DC000892B41F480916200909163009093700040
:107DD00080936F00E0916000F0916100309741F472
:107DE000EDB7FEB78091640090916500E81BF90B38
:107DF000A0916F00B09170009F012A1B3B0B2417CC
:107E0000350788F0CA0102962817390760F0CD01BE
:107E1000840F951F02969093700080936F004D938E
:107E20005D93CD0102C080E090E0DF91CF91089595
:107E3000CF93DF93009709F454C0DC011297ED0152
:107E40001B821A828091710090917200009721F13B
:107E5000FC0140E050E0EA17FB0718F1ED01FB835D
:107E6000EA832D913C911197C20FD31FCE01029648
:107E70008E179F0771F48A819B81280F391F2E5F0F
:107E80003F4F11963C932E9382819381FD01938302
:107E900082834115510559F4B0937200A09371008B
:107EA00020C0AF010280F381E02D3097A1F6EA01F6
:107EB000BB83AA83CA01029628813981820F931F4E
:107EC0008A179B0771F48D919C911197280F391F88
:107ED0002E5F3F4F39832883FD01828193819B83ED
:107EE0008A83DF91CF910895991B79E004C0991F8F
:107EF000961708F0961B881F7A95C9F78095089504
:107F0000E199FECFBFBBAEBBE09A11960DB20895CA
:107F1000F7DF01921A94E1F70895E199FECFBFBB14
:107F2000AEBB0DBA11960FB6F894E29AE19A0FBE65
:047F30000895FFCFE2
:067F3400000073002000B4
:040000030000780081
:00000001FF
